:020000040800F2
:10000000780F0020010100080901000829170008E5
:100010009119000817070008652800080000000073
:10002000000000000000000000000000C51F0008E4
:10003000CB0E000800000000831C0008C924000843
:100040001B0100081B0100081B0100081B01000820
:100050001B0100081B0100081B0100081B01000810
:100060001B0100081B0100081B0100081B01000800
:100070001B0100081B0100081B0100081B010008F0
:100080001B0100081B0100081B010008D9270008FC
:10009000F52700081B0100081B0100081B010008D0
:1000A0001B0100081B0100081B0100081B010008C0
:1000B00091250008B92500081B0100081B01000854
:1000C0001B0100081B0100081B0100081B010008A0
:1000D0001B0100081B0100081B0100081B01000890
:1000E0001B0100081B0100081B010008DFF80CD0F1
:1000F00000F030FA004800478B310008780F0020EC
:100100000648804706480047FEE7FEE7FEE7FEE7B1
:10011000FEE7FEE7FEE7FEE7FEE7FEE7CD24000888
:10012000ED00000840EA01039B0703D009E008C97D
:10013000121F08C0042AFAD203E011F8013B00F8AC
:10014000013B521EF9D27047421C10F8011B0029D6
:10015000FBD1801A704730B50B46014600202022A3
:10016000012409E021FA02F59D4205D303FA02F5C4
:10017000491B04FA02F52844151EA2F10102F1DC24
:1001800030BD2DE9F05F0546002092469B4688462B
:100190000646814640241BE0284641464746224603
:1001A00000F0F9F953465A46C01A914110D311464E
:1001B0001846224600F0E0F92D1A67EB01084F4679
:1001C00022460120002100F0D7F917EB00094E412B
:1001D000201EA4F10104DFDC484631462A4643468E
:1001E000BDE8F09F2DE9FE4F804681EA0300C00F75
:1001F0000C46009021F0004123F00045B8EB0200CE
:10020000A94105D24046214690461C460B4602466F
:1002100023F00040104347D0270DC7F30A00C3F373
:100220000A510290401A019040286BDAC3F3130080
:1002300040F4801B0098924620B10023D2EB030AC1
:1002400063EB0B0B01985946C0F14002504600F099
:1002500093F906460D4650465946019A00F0ABF90F
:1002600010EB08006141002487EA115284EAE77329
:100270001A4340D0009A62B3019A012A4FEA07520A
:1002800015DC001B61EB02014FF0004202EA07524D
:10029000CDE90042001C41F5801132462B4600F0AA
:1002A000ABF903B0BDE8F08F40462146F9E7001BEB
:1002B00061EB0201001C41F5801300185B4120181E
:1002C000A2F5001747EB030140EAD570B6196D415E
:1002D00011E06D084FEA360645EAC0754FEA07524D
:1002E000001B61EB0201001C41F5801149084FEA37
:1002F00030000019514132462B4603B0BDE8F04FA3
:1003000000F06BB90098012240000023D0EB0202FC
:1003100063EBE073009821464FEAE074B8EB00000D
:1003200061EB0401E9E783F000435BE781F0004102
:1003300058E72DE9FE4F81EA030404F0004421F060
:10034000004100944FF0000B23F0004350EA0104F9
:100350005ED052EA03045BD0C3F30A54C1F30A55DA
:100360002C44A4F2F3340194A0FB0254C1F3130112
:1003700041F48011C3F3130343F4801301FB0244DF
:1003800000FB034E840A970A44EA815447EA8357E4
:10039000A4FB076802958D0A05FB07854FEA932C9D
:1003A00004FB0C542705029D4FEA065847EA16370E
:1003B000B5EB08056EEB070C870E920E47EA811726
:1003C00042EA8312A7FB0201B6EB0B0164EB0004C7
:1003D0002B0D43EA0C335E1844EB1C50DA465146B1
:1003E000E7FB0201C5F313044FEA0B3343EA14534E
:1003F0004FEA0432019C43EA0603A4F10C04029480
:10040000009CCDE900B400F0F7F803B0BDE8F08F30
:1004100000200146F9E72DE9F04D81EA030404F0DC
:10042000004B21F0004514464FF0000A23F0004134
:1004300050EA050220D054EA01021DD0C5F30A5744
:100440000246C5F31303C1F31300C1F30A5640F487
:10045000801543F48013A7EB0608101BD64608F25C
:10046000FD3873EB050002D308F1010801E0921892
:100470005B41B8F1000F03DA00200146BDE8F08DC2
:1004800000204FF48011064684460EE0171B73EBE4
:10049000050705D3121B63EB050306434CEA010C69
:1004A00049084FEA300092185B4150EA0107EDD14C
:1004B00052EA030012D082EA040083EA05010843ED
:1004C00005D0101BAB4106D20122002306E000221A
:1004D0004FF0004302E06FF0010253101AEB0600E8
:1004E0004CEB085110EB0A0041EB0B01BDE8F04D5D
:1004F00000F073B8C1F30A52C1F3130140F2FF33A5
:1005000041F480119A4202DA00200146704740F21D
:1005100033439A42A2F2334202DC524200F03BB82B
:1005200000F02AB830B5041E71F1000404DB4FF06E
:100530000044404264EB0101141E73F1000405DB2A
:100540001C464FF00043524263EB0403994208BF3C
:10055000904230BD064C074D06E0E06840F00103D4
:1005600094E8070098471034AC42F6D3FFF7C2FD79
:1005700090370008B0370008202A04DB203A00FA40
:1005800002F1002070479140C2F1200320FA03F3EA
:10059000194390407047202A04DB203A21FA02F0E8
:1005A0000021704721FA02F3D040C2F120029140AD
:1005B000084319467047202A06DBCB17203A41FA38
:1005C00002F043EAE07306E041FA02F3D040C2F1E0
:1005D0002002914008431946704710B5141E73F16C
:1005E000000408DA401C41F1000192185B411A43F3
:1005F00001D120F0010010BD2DE9F04D92469B463F
:1006000011B1B1FA81F202E0B0FA80F220329046E4
:10061000FFF7B2FF04460F4640EA0A0041EA0B0129
:1006200053465A46084313D0114653EA010019D0E5
:10063000C8F140025046FFF7AEFF05460E46504651
:1006400059464246FFF798FF084305D0012004E0D1
:1006500020463946BDE8F08D0020054346EAE076A5
:100660002C4337430A986305E40AA0EB08000022F4
:10067000FD0A44EA47540A3002D500200146E9E762
:10068000010510196941DDE9084500196941BDE816
:10069000F04DA2E770B58C1810F8015B15F0070358
:1006A00001D110F8013B2A1106D110F8012B03E00B
:1006B00010F8016B01F8016B5B1EF9D12B0705D413
:1006C0000023521E0DD401F8013BFAE710F8013B5C
:1006D000CB1A921C03E013F8015B01F8015B521E78
:1006E000F9D5A142D8D3002070BD10B54FF4A06059
:1006F00001F088F900F012F801F0AAF901F046F8CB
:1007000001F014FF01F052FF01F042FE00F01CFC6A
:1007100002F028F810BD00BFFEE7000000B589B068
:100720000121480601F0AEFA0121052001F0CAFAC4
:100730004FF40060ADF8200048208DF8230003201E
:100740008DF8220008A9394800F000FF4FF48050CE
:10075000ADF8200018208DF8230003208DF822002A
:1007600008A9324800F0F2FE13208DF81C00012089
:100770008DF81D0000208DF81E0001208DF81F004F
:1007800007A801F007F914208DF81C0001208DF84E
:100790001D008DF81E008DF81F0007A801F0FAF863
:1007A000234800F09BF800208DF816008DF8170004
:1007B0008DF8180001208DF8190000208DF81A001E
:1007C0008DF81B008DF812008DF8130004208DF8B1
:1007D000140002208DF815000420ADF8100004A9C3
:1007E000134800F0B4F900208DF80A00ADF80800B5
:1007F000ADF80000ADF80200ADF80400ADF8060059
:100800008DF80B0001208DF80C008DF80D00684666
:1008100000F080F801221146054800F08FF901220E
:100820000221034800F08AF909B000BD0008014028
:1008300000640040B1F5007F3AD00FDC202928D0B9
:1008400006DC01291CD004291DD0082940D11DE057
:10085000402921D0B1F5807F3AD126E0B1F5004F93
:1008600031D006DCB1F5806F25D0B1F5006F2FD106
:1008700024E0B1F5803F12D0B1F5003F28D111E05E
:10088000154A826025E00822C26022E01022C26080
:100890001FE0082202611CE01022026119E0082218
:1008A000426016E01022426013E00422426010E031
:1008B000042242600DE0042242600AE000228261CC
:1008C0000422426005E0002282610422426000E0CE
:1008D00000BF00BF704700000101010010B50446D1
:1008E0000B48844209D10121480601F0DBF90021BF
:1008F0004FF0007001F0D6F908E00121880601F000
:10090000D1F900214FF0806001F0CCF910BD00005A
:100910000064004010B50021837A012202FA03F13D
:100920003D4A126842F001023B4B1A603A4A1C32BF
:1009300012688A43384B1C331A60027BCAB9364AA4
:100940000C3212688A43344B0C331A604288C388D5
:1009500042EA0343304A4032847A42F83430028813
:10096000838842EA03432C4A4032847A02EBC40271
:100970005360027B012A19D1274A0C3212680A43BC
:10098000254B0C331A604288038842EA0343224A0B
:100990004032847A42F83430C288838842EA034382
:1009A0001D4A4032847A02EBC4025360C27A3AB9DB
:1009B000194A121D12688A43174B1B1D1A6006E064
:1009C000154A121D12680A43134B1B1D1A60028937
:1009D00032B9114A143212688A430F4B14331A6029
:1009E0000289012A06D10C4A143212680A430A4BC2
:1009F00014331A60427B012A06D1074A1C3212685E
:100A00000A43054B1C331A60034A126822F00102A4
:100A1000014B1A6010BD00000066004070B504462E
:100A20000D46002660692840002871D0B5F5807F0A
:100A30005CD010DC082D35D006DC012D20D0022D35
:100A400024D0042D72D127E0102D31D0202D35D0A7
:100A5000402D6BD138E0B5F5004F60D009DCB5F51D
:100A6000007F49D0B5F5806F4CD0B5F5006F5DD1F2
:100A70004FE0B5F5803F2DD0B5F5003F56D12FE0C2
:100A8000A0682D4900F018FA064651E0E0680321FD
:100A900000F012FA06464BE0E068082100F00CFA7C
:100AA000064645E0E068102100F006FA06463FE001
:100AB0002069032100F000FA064639E02069082188
:100AC00000F0FAF9064633E02069102100F0F4F94D
:100AD00006462DE06068082100F0EEF9064627E0A2
:100AE0006068102100F0E8F9064621E0A0690121C4
:100AF00000F0E2F906461BE0A069022100F0DCF9F3
:100B0000064615E0A069042100F0D6F906460FE07C
:100B10000FE0A069702100F0CFF9064608E0606898
:100B2000042100F0C9F9064602E0FFE7002600BFF5
:100B300000E00026304670BD010101001AB1436992
:100B40000B43436102E043698B434361704730B517
:100B5000024600200023146824F002041460146884
:100B600044F00104146000E05B1C546804F00104CC
:100B70001CB94FF6FF74A342F6D1546804F0010487
:100B80000CB900206CE08C79012C04D1146844F07D
:100B90008004146003E0146824F080041460CC79AD
:100BA000012C04D1146844F04004146003E014687C
:100BB00024F0400414600C7A012C04D1146844F031
:100BC0002004146003E0146824F0200414604C7ABC
:100BD000012C04D1146844F01004146003E014687C
:100BE00024F0100414608C7A012C04D1146844F0B1
:100BF0000804146003E0146824F008041460CC7A3C
:100C0000012C04D1146844F00404146003E0146857
:100C100024F0040414608C78A407CD7844EA0564B9
:100C20000D7944EA05444D7944EA05540D886D1E5A
:100C30002C43D461146824F001041460002300E004
:100C40005B1C546804F001041CB14FF6FF74A3420E
:100C5000F6D1546804F001040CB1002000E001203A
:100C600030BD10B500F5D87303EB01131B6803F01A
:100C700004031372137A53B900F5D87303EB01130D
:100C80001B6840F2FF7404EA5353136009E000F557
:100C9000D87303EB01131B686FF0604404EAD303BD
:100CA000536000F5D87303EB01131B6803F00203D4
:100CB000537200F5D87303EB01135B6803F00F0365
:100CC000937200F5D87303EB01135B681B0AD374AE
:100CD00000F5D87303EB01139B68D37200F5D8734A
:100CE00003EB01139B681C0A147300F5D87303EB24
:100CF00001139B681C0C547300F5D87303EB0113AC
:100D00009B681B0E937300F5D87303EB0113DB682C
:100D1000D37300F5D87303EB0113DB681C0A14745A
:100D200000F5D87303EB0113DB681C0C547400F559
:100D3000D87303EB0113DB681B0E937421B9C368EE
:100D400043F02003C36003E0036943F02003036121
:100D500010BD10B502460020936803F08063B3F124
:100D6000806F00D110E0936803F00063B3F1006F6F
:100D700001D1012008E0936803F08053B3F1805F54
:100D800001D1022000E00420042874D002F5C073D1
:100D900003EB00131B6803F0010402F5C07303EBBF
:100DA00000131C600B7A7BB94B7A0C8843EA4453DE
:100DB00002F5C07404EB00142468234302F5C074E8
:100DC00004EB0014236010E00B7A4C6843EAC40380
:100DD0004C7A234302F5C07404EB001424682343C7
:100DE00002F5C07404EB001423608B7A03F00F0348
:100DF0008B7202F5C07303EB00135B6823F00F04E2
:100E000002F5C07303EB00135C6002F5C07303EBE3
:100E100000135B688C7A234302F5C07404EB001462
:100E200063608B7B1C064B7B44EA03440B7B44EAE8
:100E30000323CC7A234302F5C07404EB0014A360AF
:100E40008B7C1C064B7C44EA03440B7C44EA032362
:100E5000CC7B234302F5C07404EB0014E36002F57D
:100E6000C07303EB00131B6843F0010402F5C07369
:100E700003EB00131C6010BD10B501F015FB10BD95
:100E800070B586B004460E461546019400200290C7
:100E90008DF80C008DF80D008DF80E502A46314665
:100EA0000DF10F00FFF73EF901A90248FFF751FFCE
:100EB00006B070BD006400400246002002EA010353
:100EC0000BB1012000E000207047704738B505469F
:100ED0000C4600F0A1FD00230DA21946184600F0B3
:100EE0001FFE284600F060F900230EA204211846D8
:100EF00000F016FE0EA3012204214020009400F011
:100F000049FE00230BA20621184600F009FE38BD59
:100F1000532B202020202020202020202020422B66
:100F2000000000002020202020423A200000000085
:100F300025336400532D2020202020202020202035
:100F40002020422D0000000010B500200749087045
:100F500048700748C1F80200802088714020C8719D
:100F600001200872084600F047FE10BD240A002048
:100F70000006002038B505460C4600F04DFD002364
:100F80000DA21946184600F0CBFD284600F00CF9DA
:100F900000230EA20421184600F0C2FD0EA3012278
:100FA00004214020009400F0F5FD00230BA206214F
:100FB000184600F0B5FD38BD532B202020202020FE
:100FC000202020202020472B00000000202020206F
:100FD00020473A200000000025336400532D2020D4
:100FE00020202020202020202020472D000000004D
:100FF00038B505460C4600F00FFD00230DA219463A
:10100000184600F08DFD284600F0CEF800230EA211
:101010000421184600F084FD0EA301220421402083
:10102000009400F0B7FD00230BA20621184600F043
:1010300077FD38BD532B20202020202020204C6914
:101040006768742B0000000020202020204C3A20EC
:101050000000000025336400532D20202020202094
:1010600020204C696768742D000000001CB5044600
:1010700000F0D2FCA0780EA300221146009010468A
:1010800000F088FD207800F08FF860780DA3002232
:1010900004210090104600F07DFDE07821790CA33A
:1010A0000022CDE900100621104600F073FD1CBDA2
:1010B0005377697463682020202020523A253364D6
:1010C000000000002020202020204C3A253364001E
:1010D000423A253364202020202020473A253364DB
:1010E0000000000010B500F097FC002305A219468F
:1010F000184600F015FD002307A20621184600F04F
:101100000FFD10BD532B2020202020202020202048
:101110005265616400000000532D20202020202013
:1011200020202020536176650000000038B5054678
:101130000C4600F071FC00230DA21946184600F081
:10114000EFFC284600F030F800230EA204211846D8
:1011500000F0E6FC0EA3012204214020009400F0E0
:1011600019FD00230BA20621184600F0D9FC38BD5A
:10117000532B202020202020202020202020522BF4
:10118000000000002020202020523A200000000013
:1011900025336400532D20202020202020202020D3
:1011A0002020522D0000000010B50446082C36D235
:1011B000DFE804F035040B121920272E00231CA2AF
:1011C0000221184600F0ACFC30E000231BA20221F3
:1011D000184600F0A5FC29E000231CA202211846B5
:1011E00000F09EFC22E000231CA20221184600F021
:1011F00097FC1BE000231DA20221184600F090FC82
:1012000014E000231DA20221184600F089FC0DE025
:1012100000231EA20221184600F082FC06E00023F3
:101220001EA20221184600F07BFC00BF00BF10BDCB
:101230002020202020205245414400002020202052
:101240004C49474854494E470000000020202020C8
:101250005343454E455F5245440000002020534310
:10126000454E455F475245454E0000002020205323
:1012700043454E455F424C5545000000202020204C
:10128000202045584F54494300000000202020539F
:10129000454C465F444546494E4500002053434572
:1012A0004E455F554E56414C4944000010B504462A
:1012B00000F0B2FB002326A21946184600F030FCCD
:1012C000082C36D2DFE804F035040B121920272E43
:1012D000012324A20221302000F022FC30E001236F
:1012E00022A20221202000F01BFC29E0012322A2DF
:1012F0000221202000F014FC22E0012321A202217F
:10130000102000F00DFC1BE0012321A20221182077
:1013100000F006FC14E0012320A20221302000F09E
:10132000FFFB0DE001231FA20221182000F0F8FBB3
:1013300006E001231EA20221082000F0F1FB00BFFD
:1013400000BF00231EA20621184600F0E9FB10BDD5
:10135000532B20202020202020205363656E652BF6
:101360000000000052454144000000004C4947483D
:1013700054494E47000000005343454E455F5245D7
:10138000440000005343454E455F475245454E00DB
:101390005343454E455F424C5545000045584F5418
:1013A0004943000053454C465F444546494E45007D
:1013B0005343454E455F554E56414C49440000004D
:1013C000532D20202020202020205363656E652D82
:1013D0000000000070B53E484078012861D13C48CB
:1013E000007880B900F09CF90446FFF73FFE3948C9
:1013F0000088002852D03749088801F005F80020FD
:10140000344908804AE03348008828B9314948689F
:1014100000F0D4FF2F49088000F07AF900780728FF
:101420003BD2DFE800F03A040F16212C370000F021
:1014300077F9447800F074F9057821462846FFF7DB
:10144000D7FD2AE000F06CF904782046FFF72EFF64
:1014500023E000F065F9847800F062F90578214610
:101460002846FFF763FE18E000F05AF9C47800F050
:1014700057F9057821462846FFF77CFD0DE000F07E
:101480004FF9047900F04CF9057821462846FFF71A
:101490001DFD02E0FFF726FE00BF00BF00200C4943
:1014A00048700C48008890B10A49088800F04EFF47
:1014B000022804D100200649087001204870FFF777
:1014C000DBFC20B1034A5168108800F0C5FF70BDF5
:1014D0000E0A0020000A002010B51B488078012861
:1014E00031D100F015F90078072828D2DFE800F0A4
:1014F0002704070A0D10130001F022F91FE001F084
:1015000057F91CE001F000F919E001F0FDF816E0D0
:1015100001F0FAF813E00C48C078012805D101F079
:1015200021F900200849C87008E00748C07802285F
:1015300004D101F031F900200349C87000BF00BF99
:1015400000200149887010BD0E0A00202DE9F041ED
:10155000024600250026002000230024002791F8E1
:1015600003C00CF00F0591F803C00CF0100CBCF197
:10157000000F03D091F802C04CEA050591F800C0B5
:10158000BCF1000F31D0146800202BE04FF0010CAB
:101590000CFA00F3B1F800C00CEA03069E4220D119
:1015A00083004FF00F0C0CFA03F7BC4305FA03FC61
:1015B0004CEA040491F803C0BCF1280F06D14FF0A7
:1015C000010C0CFA00FCC2F814C00AE091F803C048
:1015D000BCF1480F05D14FF0010C0CFA00FCC2F829
:1015E00010C0401C0828D1D31460B1F800C0BCF171
:1015F000FF0F34DD546800202EE000F1080C4FF09E
:10160000010808FA0CF3B1F800C00CEA03069E4288
:1016100021D183004FF00F0C0CFA03F7BC4305FAFD
:1016200003FC4CEA040491F803C0BCF1280F05D177
:1016300000F1080C08FA0CF8C2F8148091F803C005
:10164000BCF1480F07D100F1080C4FF0010808FA6F
:101650000CF8C2F81080401C0828CED35460BDE8B6
:10166000F0810000F0B50A46002300240021002587
:1016700000F00046B6F1004F02D11D4EF16901E0C5
:101680001B4E7168C0F3034583B200F44016B6F5F3
:10169000401F08D121F07061154E766826F0706603
:1016A000134F7E6012E000F48016B6F5801F06D15D
:1016B000032606FA05F4A14341F0706106E0460DE9
:1016C000360103FA06F6B14341F0706122B1460DCE
:1016D000360103FA06F6314300F00046B6F1004F3A
:1016E00002D1034EF16101E0014E7160F0BD0000D6
:1016F000000001400246002093680B400BB101201E
:1017000000E00020704741617047016170470000B0
:1017100000487047080A002000487047170A002058
:1017200000487047090A002000BFFEE71FB50121ED
:10173000022000F0A7FA40F2E730ADF80800472099
:10174000ADF804000020ADF80A00ADF8060001A9CC
:101750000D4800F06BFF1D208DF8000000208DF873
:10176000010003208DF8020001208DF80300684677
:1017700000F010F901221146034800F04DFF01214D
:10178000014800F02CFF1FBD0004004008B50121F6
:10179000082000F097FA0121042000F093FA0121BB
:1017A000084600F08FFA0820ADF8000048208DF8B8
:1017B000030003208DF8020069461448FFF7C6FEB7
:1017C00048F20300ADF8000069461148FFF7BEFE7D
:1017D000002017E0002100EBC0020E4B1A441172EA
:1017E00000EBC0021A44118000EBC0021A44518081
:1017F00000EBC0021A44918000EBC0021A44D18071
:10180000411CC8B20428E5DB08BD0000000C014003
:1018100000080140D00A00202DE9F047064688461E
:1018200091461F46A9F12000C4B2F0B2414600F033
:101830003DF8002512E02FB905EB04101A4911F804
:1018400000A006E005EB04101749085CC04300F057
:10185000FF0A504600F06CF8681CC5B2082DEADBA0
:1018600008F10102D1B2F0B200F020F8002516E034
:101870003FB9082000EB041028440B4911F800A0E0
:1018800008E0082000EB041028440749085CC04326
:1018900000F0FF0A504600F04BF8681CC5B2082D56
:1018A000E6DBBDE8F08700009E31000870B5044615
:1018B0000D4605F1B001C8B200F00AF8102141EA66
:1018C000141000F005F804F00F0000F001F870BDEE
:1018D00070B50446082540211448FFF714FF202165
:1018E0001248FFF710FF012001F042FC18E004F05D
:1018F000800020B110210D48FFF707FF03E0102101
:101900000A48FFF700FF20210848FFF7FEFE0120EC
:1019100001F02EFC20210548FFF7F5FE6006040EBD
:101920002800A5F10101CDB2E1D170BD000C01404C
:1019300070B50446082540211448FFF7E6FE202133
:101940001248FFF7E0FE012001F012FC18E004F05D
:10195000800020B110210D48FFF7D7FE03E01021D1
:101960000A48FFF7D0FE20210848FFF7CEFE0120ED
:1019700001F0FEFB20210548FFF7C5FE6006040EBE
:101980002800A5F10101CDB2E1D170BD000C0140EC
:1019900000BFFEE770B5002100230F22C47804B316
:1019A000154C246804F4E064C4F5E064210AC1F134
:1019B0000403CA40447804FA03F1847814402143B4
:1019C00009010E4C0678A155047804F01F05012486
:1019D000AC4005786D11AD0005F1E025C5F800417A
:1019E00009E0047804F01F050124AC40044D06789A
:1019F000761145F8264070BD0CED00E000E400E0F3
:101A000080E100E002490143024A11607047000092
:101A10000000FA050CED00E070B5002415E004F1BB
:101A2000B001C8B2FFF754FF0120FFF751FF1020AB
:101A3000FFF74EFF002504E00020FFF779FF681C48
:101A4000C5B2802DF8DB601CC4B2082CE7DB70BD8A
:101A500010B500F049F820212248FFF756FE8021FA
:101A60002048FFF750FEC82001F074FB80211D487C
:101A7000FFF74BFE002000F028FC802000F013FC54
:101A80003F2000F041FC002000F016FC002000F098
:101A900073FB042000F0ECFB022000F05BFB012054
:101AA00000F044FC082000F0F7FB102000F0EAFBF7
:101AB000CF2000F058FBF12000F02FFC402000F078
:101AC0003CFC002000F012FC002000F016FC01207D
:101AD00000F0FBFBFFF7A0FF00210846FFF7E6FE42
:101AE00010BD0000000C014008B50121092000F0E4
:101AF000E9F801210848FFF7B5FDF020ADF8000036
:101B000010208DF8030003208DF802006946034879
:101B1000FFF71CFD08BD000000023000000C014072
:101B20002DE9F04104460D461646984600270DE083
:101B3000F25D434629462046FFF76EFE0834802CAE
:101B400002D30024A81CC5B2781CC7B2F05D0028DF
:101B5000EED1B8F1020F1AD1E0B22946FFF7A6FE86
:101B6000E7B204E0FF20FFF7E3FE781CC7B2802F46
:101B7000F8DB6A1CD1B2E0B2FFF798FEE7B204E0EE
:101B8000FF20FFF7D5FE781CC7B2802FF8DBBDE839
:101B9000F08100000FB42DE9F84380460D4616464B
:101BA0000CA800901248009A0B9900F05DFE0020EE
:101BB00000900F48FEF7C8FAC7B23C4604E0202068
:101BC0000B490855601CC4B20A48405DA042F6DCCF
:101BD00000200749085533460A4629464046FFF784
:101BE0009FFF04484755BDE8F8035DF814FB00006B
:101BF000F40A00201B0A00202DE9F04104460026CB
:101C0000002535E062782A44D1B22078FFF74EFEF5
:101C10004FF0000827E0207A78B9D4F8020018B90C
:101C20000020FFF785FE1AE0D4F802303146721C1E
:101C300096B2585CFFF77CFE11E0D4F802203046E3
:101C4000711C8EB2175CF843C7B2D4F8020018B901
:101C5000FF20FFF76DFE02E03846FFF769FE08F14E
:101C6000010000F0FF08A0794045D4DC681CC5B233
:101C7000E079C11700EB5171B5EBE10FC2DBBDE8B4
:101C8000F081704729B1064AD2690243044BDA61F8
:101C900004E0034AD2698243014BDA6170470000D5
:101CA0000010024029B1064A12690243044B1A612E
:101CB00004E0034A12698243014B1A617047000035
:101CC0000010024029B1064A92690243044B9A610E
:101CD00004E0034A92698243014B9A617047000015
:101CE0000010024010B502210148FFF703FD10BDAE
:101CF0000008014010B501210148FFF7FBFC10BDB1
:101D00000008014010B54FF400410248FFF7F2FC13
:101D100010BD00000008014010B508210148FFF780
:101D2000E9FC10BD000C014010B5FFF7F5FC007890
:101D3000022809D1A048007830B901209F490870D5
:101D40009D4908709D494870FFF7E6FC40780228DD
:101D50000AD19948007838B100209849087096490E
:101D600008700120954948709448007801287DD179
:101D7000FFF7D2FC007801280DD18F480078401C75
:101D80008D49087008460078062801DD012008709A
:101D900001208A494870FFF7BFFC407801280CD128
:101DA00085480078401E844908700846007808B9C4
:101DB000062008700120814948707F480078072874
:101DC0007ED2DFE800F0F2042B668FB6DD00FFF76D
:101DD000A3FC8078012804D0FFF79EFC80780228BD
:101DE00008D177484078401C7549487001207349F4
:101DF00048708870FFF790FCC078012804D0FFF786
:101E00008BFCC078022808D16D484078401E6C4990
:101E100048700120694948708870C7E0FFF77CFC72
:101E20008078012804D0FFF777FC8078022811D150
:101E300063480078072801DB012005E0604800784E
:101E4000401CC0B25E4908705D49087001205B49C2
:101E500048708870FFF760FCC078012804D0FFF755
:101E60005BFCC078022813D1554800E09FE0007861
:101E7000012801DC072005E051480078401EC0B26F
:101E80004F4908704E49087001204C4948708870CD
:101E90008CE0FFF741FC8078012804D0FFF73CFC80
:101EA0008078022808D146488078401C44498870D0
:101EB0000120424948708870FFF72EFCC07800E08E
:101EC00073E0012804D0FFF727FCC078022808D16E
:101ED0003B488078401E3A49887001203749487055
:101EE000887063E0FFF718FC8078012804D0FFF7C2
:101EF00013FC8078022808D13148C078401C304952
:101F0000C87001202D4948708870FFF705FCC07823
:101F1000012804D0FFF700FCC078022808D1284827
:101F2000C078401E2649C870012024494870887036
:101F30003CE0FFF7F1FB8078012804D0FFF7ECFBD1
:101F40008078022808D11E480079401C1C4908717D
:101F500001201A4948708870FFF7DEFBC07801281D
:101F600004D0FFF7D9FBC078022808D114480079C3
:101F7000401E13490871012010494870887015E00F
:101F8000FFF7CAFB8078012803D10C49C87048705C
:101F90008870FFF7C1FBC078012805D102200749EE
:101FA000C87001204870887000E000BF02E0002087
:101FB0000149087010BD0000080A00200E0A002028
:101FC000090A00207047000010B5FFF78BFE5E493C
:101FD0000870FFF78FFE5C494870FFF793FE5A497F
:101FE0008870FFF799FE5849C87000206EE0564986
:101FF000095C79BB00EBC001544A1144898841B1A6
:1020000000EBC0011144898800EBC0024F4B1A4419
:10201000D18000EBC0014D4A11440988143100EB16
:10202000C0024A4B1A441180002100EBC0021A443E
:10203000918000EBC0011A4611440988B1F57A7FFE
:1020400042DD00EBC0011144098800EBC0021A44D4
:10205000518039E0FFE700EBC0013C4A1144098898
:1020600041B100EBC0011144098800EBC002374BBD
:102070001A44518000EBC001344A11448988B1F5FB
:10208000FA6F09DA00EBC00111448988143100EBC2
:10209000C0022E4B1A449180002100EBC0022B4B52
:1020A0001A44118000BF0DE001EBC102274B1A4416
:1020B000127A2AB1002201EBC103244C23441A7284
:1020C0004A1CD1B20429EFDB411CC8B204288EDBC4
:1020D000002035E000EBC0011C4A1144498800296A
:1020E00012DD00EBC00111444988B1F57A7F0BDAAB
:1020F000012100EBC002154B1A441172002100EBC4
:10210000C0021A44518012E000EBC0010F4A114492
:102110004988B1F57A7F0ADD022100EBC0020B4B42
:102120001A441172002100EBC0021A44518000EBE6
:10213000C001064A1144097A054A1154411CC8B22B
:102140000428C7DB10BD0000130A0020D00A0020BD
:10215000170A002010B504462020FFF7B9FB2046DF
:10216000FFF7B6FB10BD10B504468120FFF7B0FBAA
:102170002046FFF7ADFB10BD10B5044644F040000B
:10218000FFF7A6FB10BD10B500F002F810BD00006F
:102190000CB50020019000903348006840F4803076
:1021A0003149086000BF3048006800F400300090FA
:1021B0000198401C0190009818B90198B0F5A06FE3
:1021C000F1D12948006800F4003010B101200090DE
:1021D00001E0002000900098012843D123480068C6
:1021E00040F01000214908600846006820F0030014
:1021F00008600846006840F0020008601A4840681D
:10220000194948600846406848600846406840F4FC
:10221000806048600846406820F47C1048600846AA
:10222000406840F4E81048600846006840F080705C
:10223000086000BF0C48006800F000700028F9D06A
:102240000948406820F00300074948600846406894
:1022500040F00200486000BF0348406800F00C00F6
:102260000828F9D10CBD00000010024000200240F7
:1022700010B504468D20FFF72BFB44F01000FFF74C
:1022800027FB10BD10B50446DA20FFF721FB44F010
:102290000200FFF71DFB10BD10B5044644F0C0005E
:1022A000FFF716FB10BD10B50446D520FFF710FB55
:1022B0002046FFF70DFB10BD10B50446D320FFF7F5
:1022C00007FB2046FFF704FB10BD10B50446012CA8
:1022D00003D10420FFF7CCFF03E014B90020FFF77F
:1022E000C7FF44F0AE00FFF7F3FA10BD10B5044687
:1022F00044F0A400FFF7ECFA10BD10B5044644F01A
:10230000A600FFF7E5FA10BD10B50446A820FFF7B8
:10231000DFFA2046FFF7DCFA10BD10B50446D920DD
:10232000FFF7D6FA2046FFF7D3FA10BD10B50446E2
:1023300044F0A000FFF7CCFA10BD10B50446DB2036
:10234000FFF7C6FA2046FFF7C3FA10BD70B5044682
:10235000032500BF00F09AFA064600BF72B600BF20
:102360000A4830F83400A04207D1084800EBC40006
:10237000406808B1012500E0022500BF304600F0AA
:1023800097FA00BF00BF284670BD0000300A002049
:1023900010B50024012408E00020074921F834008A
:1023A00001EBC4014860601CC4B2142CF4DBFFF7DD
:1023B000BDF9002010BD0000300A002070B50546B0
:1023C000002401241AE00F4830F83400A0B900BFFF
:1023D00000F05CFA064600BF72B600BF094820F85C
:1023E000344000EBC400456000BF304600F060FAA6
:1023F00000BF00BF204670BD601CC4B2142CE2DBDD
:102400000020F8E7300A002070B5054600240124BA
:102410001CE0104830F83400A84215D100BF00F08D
:1024200035FA064600BF72B600BF0020094921F800
:10243000340001EBC401486000BF304600F038FAB8
:1024400000BF00BF002070BD601CC4B2142CE0DBD4
:102450000120F8E7300A00202DE9F04105460E463C
:10246000002401241AE00F4830F83400A84213D1A8
:1024700000BF00F00BFA074600BF72B600BF094864
:1024800000EBC400466000BF384600F011FA00BF00
:1024900000BF0020BDE8F081601CC4B2142CE2DB58
:1024A0000120F7E7300A00200021002005E0054A5E
:1024B000125C0A44D1B2421CD0B20428F7DB0846B1
:1024C00070470000170A00207047000010B513483D
:1024D000006840F001001149086008464068104952
:1024E00008400E494860084600680E4908400B49FC
:1024F00008600846006820F48020086008464068AC
:1025000020F4FE0048604FF41F008860FFF73BFE98
:102510004FF000600449086010BD00000010024048
:102520000000FFF8FFFFF6FE08ED00E01FB50121F7
:102530000846FFF7A7FB0020ADF80A001020ADF811
:102540000600C720ADF8080041F61F40ADF80400B2
:1025500000208DF80C0001A94FF0804000F066F8D3
:102560001C208DF8000000208DF801008DF802007D
:1025700001208DF803006846FFF70CFA012211468E
:10258000900700F049F80121880700F025F81FBDE9
:1025900010B50121880700F02EF8012805D101218E
:1025A000800700F019F8FFF70FFD10BD10B50121ED
:1025B000880700F014F810BD10B50121054800F09F
:1025C0001AF828B10121034800F006F800F080F85D
:1025D00010BD000000040040CA430282704721B1D0
:1025E000028842F00102028004E002884FF6FE7386
:1025F0001A400280704730B50246002000230024B4
:10260000158A05EA0103958905EA010413B10CB1A5
:10261000012000E0002030BD1AB183890B43838183
:1026200002E083898B438381704700000022028887
:102630001D4B98420ED01D4B98420BD0B0F1804FED
:1026400008D01B4B984205D01A4B984202D01A4B27
:10265000984204D14FF68F731A404B881A43174B98
:10266000984207D0164B984204D04FF6FF431A40C9
:10267000CB881A4302808B8883850B8803850A4B9D
:1026800098420BD0094B984208D00E4B984205D087
:102690000D4B984202D00D4B984201D10B7A038624
:1026A0000123838270470000002C01400034014068
:1026B0000004004000080040000C004000100040F2
:1026C0000014004000400140004401400048014027
:1026D0000020012013E00B4931F8301069B109499D
:1026E00001EBC001496841B1064901EBC0014968ED
:1026F000491E044A02EBC0025160411CC8B21428B2
:10270000E9DB7047300A002008B500200090232044
:102710008DF80000FFF704F880788DF80100FEF7CF
:10272000FFFFC0788DF80200FEF7FAFF00798DF800
:1027300003000422694640F2FF20FEF7A1FB08BD1A
:1027400008B50020009022208DF80000FEF7E8FF79
:1027500040788DF801000222694640F2FF20FEF722
:102760008FFB08BD08B500200090242000900020B9
:102770000849087108E00122694640F2FF20FEF78F
:102780007FFB322000F0E6FC024800790028F2D0FE
:1027900008BD00000E0A002008B50020009025208A
:1027A00000900122694640F2FF20FEF769FB08BD58
:1027B00008B50020009021208DF80000FEF7B0FF42
:1027C00000788DF801000222694640F2FF20FEF7F2
:1027D00057FBFFF7C7FF08BD10B501210448FEF7FE
:1027E0001DF918B101210248FEF724F810BD0000C0
:1027F0000064004000B585B002211848FEF70EF9CC
:1028000048B302211548FEF715F86A46002113481F
:10281000FEF727FA40F20111009888421BD1FEF71B
:102820007FFF9DF80B100170FEF77AFF9DF80C10EA
:102830004170FEF775FF9DF80D108170FEF770FF77
:102840009DF80E10C170FEF76BFF9DF80F1001711F
:1028500001200349087105B000BD0000006400407C
:102860000E0A002000BFFEE737B514460846064BA7
:102870006A46214600F0D2F804466946002000F07E
:1028800064FC20463EBD00004B310008EFF3108091
:10289000704702E008C8121F08C1002AFAD1704729
:1028A0007047002001E001C1121F002AFBD17047D0
:1028B00080F31088704700002DE9FF5FDDE90220FA
:1028C000010DDDF838B0024318D044F61050A1F2E3
:1028D000FF3141430D140F98012820D0A5EB0B00C8
:1028E000401C5FEA000A4FF00004474EDFF81C91DD
:1028F000A046504616D5CAF1000728E00F980124DB
:1029000043A2012808D0002100980F9BC0E90021B4
:10291000C0E90243BDE8FF9F6FEA0B01F4E7CBF18A
:102920000000DEE7074612E0F80707D022463346EC
:1029300040464946FDF7FDFC80468946224633461F
:1029400010461946FDF7F5FC04460E467F10002F91
:10295000EAD1DDE90201BAF1000F42464B4602DA44
:10296000FDF7E7FC01E0FDF756FD04460E460022A8
:10297000284BFDF7D7FD03D84FF0FF30014607E0A5
:102980000022254B20463146FDF72CFCFDF7B2FD19
:10299000102409E0002C0ADB0A220023FDF7F1FBDA
:1029A000019B30321A55641E50EA0102F2D1641CB8
:1029B000019AC4F1110314440F9A012A03D0012291
:1029C00008430DD10AE0084304D000204FF0110B5A
:1029D0000F9080E7A3EB0B056D1E0DE05B4504DD5A
:1029E0004FF0000205F1010504E003DA4FF00002A8
:1029F000A5F10105002AECD000980F99C0E9023139
:102A0000C0E9004586E70000000024400000F03FD8
:102A1000300000000000F0430000E03F2DE9FF4FD0
:102A200095B09B468946064600250FE2252877D1BA
:102A300000242746F84A0121059400E0044316F8D3
:102A4000013F203B01FA03F01042F7D130782A28E9
:102A500011D06FF02F033078A0F13002092A16D878
:102A6000059A44F0020402EB820203EB4202104496
:102A7000761C0590EFE759F8042B0592002A03DA3B
:102A8000504244F40054059044F00204761C30781F
:102A90002E2816D116F8010F44F004042A280DD070
:102AA0006FF02F023078A0F13003092B09D807EB23
:102AB000870302EB4303C718761CF3E759F8047B3E
:102AC000761C30786C280FD006DC4C2817D068288C
:102AD0000DD06A2814D104E0742810D07A280FD1C0
:102AE0000DE044F400140AE044F4801401E044F4DE
:102AF00040147278824202D104F58014761C761C50
:102B0000307866280BD013DC582877D009DC0028F1
:102B100075D04528F6D04628F4D047281AD19DE133
:102B200018E0632835D0642879D0652812D195E162
:102B3000702873D008DC6728F1D069286FD06E2820
:102B40000DD06F2806D1B5E073282CD0752875D02C
:102B5000782874D05A46179990476D1C75E1C4F3D4
:102B60000250022809D003280DD0D9F800100428FB
:102B70000DD00D6009F1040967E1D9F80010EA17DA
:102B8000C1E90052F6E7D9F800100D80F2E70D70A8
:102B9000F0E719F8041B8DF8001000208DF80100F3
:102BA000EA46012003E059F804AB4FF0FF3061071B
:102BB0004FF0000102D40DE008F101018846B9424E
:102BC0000FDA8045F8DB1AF808100029F4D108E084
:102BD00008F1010188468142FADB1AF80810002941
:102BE000F6D105985B46A0EB080721463846179AB0
:102BF00000F094FA284400EB080507E04DE029E1D5
:102C00000DE01AF8010B5A4617999047B8F10108E0
:102C1000F7D25B4621463846179A13E142E00A2272
:102C20000092C4F302524FF0000A022A08D059F869
:102C300004CB032A4FEAEC710AD00DE029E02AE028
:102C400009F1070121F00702F2E802C1914609E00B
:102C50000FFA8CFC4FEAEC71042A03D14FFA8CFC7A
:102C60004FEAEC71002907DA0A460021DCF1000C7A
:102C700061EB02012D2202E0220504D52B228DF802
:102C80000420012203E0E20701D02022F7E790466A
:102C900059E00A2102E010220DE010214FF0000A55
:102CA00000910BE010224FF0000A44F004040827C2
:102CB000009203E008224FF0000A0092C4F302528F
:102CC000022A05D059F804CB0021032A08D009E0D4
:102CD00009F1070121F00702F2E802C1914605E07F
:102CE0001FFA8CFC042A01D10CF0FF0C4FF00008F5
:102CF000220728D5702806D0009B83F0100353EAE2
:102D00000A0305D00EE040228DF80420012208E0DD
:102D10005CEA010206D030228DF804208DF805000F
:102D200002229046009B83F0080353EA0A030AD16B
:102D30005CEA010201D1620705D530228DF804203A
:102D40004FF001087F1E582804D034A003900EA82D
:102D500002900DE036A0F9E753466046009AFDF771
:102D600010FA84460398825C0298401E029002701A
:102D70005CEA0100F0D1029806A9081A00F1200AC5
:102D8000600702D524F4803400E00127574502DDB6
:102D9000A7EB0A0000E0002000EB0A010090059874
:102DA0004144401A0590E00306D45B462146179A39
:102DB000059800F0B3F90544002706E001A85A463B
:102DC000C05D179990476D1C7F1C4745F6DBE003FB
:102DD0000CD55B462146179A059800F09FF90544EB
:102DE00004E030205A46179990476D1C0099481E00
:102DF00000900029F5DC08E0029802995A46007814
:102E0000491C0291179990476D1CBAF10001AAF173
:102E1000010AF1DC65E1000009280100303132339C
:102E20003435363738396162636465660000000006
:102E300030313233343536373839414243444546F0
:102E40000000000000F058F90544761C3078002896
:102E50007FF4ECAD19B02846BDE8F08F620700D4CE
:102E6000062709F1070222F0070CFCE80223E146DD
:102E700003F000485FEA080C02D00FF2702C0DE05E
:102E80005FEA045C02D50FF2682C07E05FEAC47CBD
:102E900002D00FF2602C01E0AFF2700C4FF0FF385F
:102EA00023F00043CDF850C065280CD006DC45283F
:102EB00009D046281DD047283DD13DE0662818D0CE
:102EC00067287ED138E00021112F01DB112000E0BE
:102ED000781CCDE9000106A90EA8FFF7EDFCDDE99D
:102EE0000F010E9A03910021009207F1010A04914B
:102EF0004DE04FF000400097CDE9011006A90EA863
:102F0000FFF7DAFCDDE90F0203920E9B1199002214
:102F1000DDF80CA00093049211B9791C00EB010AB2
:102F2000B7EB0A0004D4C0F1FF3007F1010A0490A6
:102F3000AAEB0700019044E0012F00DA01270021ED
:102F4000112F01DD112000E03846CDE9000106A96E
:102F50000EA8FFF7B1FCDDE90F010E9A03910021E5
:102F600004910092BA4621070CD40399514500DA26
:102F70008A46BAF1010F05DD009AAAF10101515C00
:102F8000302908D0B84202DA10F1040F06DA012124
:102F9000CDE9011015E0AAF10101E9E7002805DCFF
:102FA000049901440491AAEB000102E0411C51453F
:102FB00000DD8A460499401A401C01904FF0004001
:102FC0000290200704D40198504501DBCDF804801D
:102FD00000208DF84F0002980DF14F07B0F1004F1F
:102FE00025D02B200E9002984FF0020800280CDA12
:102FF000404202902D200E9007E00A210298FDF732
:10300000AAF83031029007F8011DB8F10001A8F1CB
:103010000108F2DC02980028EFD1791E0E980870A2
:10302000307800F0200040F0450007F8020D12A8AB
:10303000C01B00F107081498007800B1012000EBD4
:103040000A01019801EBE07105984144401A401EC5
:103050000590E00306D45B462146179A059800F0D8
:103060005DF805441498007818B15A4617999047AE
:103070006D1CE00324D55B462146179A059800F0A5
:103080004DF805441CE00498002807DBDDE9030146
:10309000884203DD0098405C179901E017993020C1
:1030A0005A469047049805F10105401C0490019888
:1030B000401E019004D12E205A46179990476D1C4E
:1030C000BAF10001AAF1010ADDDC05E017F8010BF5
:1030D0005A46179990476D1CB8F10001A8F10108F4
:1030E000F4DC5B462146179A0598ABE62D000000FC
:1030F0002B000000200000002DE9F04104460025CF
:103100001E461746880404D405E039462020B047FF
:103110006D1C641EF9D52846BDE8F0812DE9F0410B
:10312000044600251E469046C80301D5302700E01E
:103130002027880404D505E041463846B0476D1C79
:10314000641EF9D52846BDE8F0810A68531C0B605F
:103150001070704710B5002107E042F63C0200BF36
:103160001300A2F10102FBD1491C8142F5D310BD2D
:1031700010B5002106E0092200BF1300A2F10102F0
:10318000FBD1491C8142F6D310BDFDF7AEFA05E034
:10319000FEF7CAFDFEF71EF9FEF79EF9F8E70000FC
:1031A000000000000000000000000000000000001F
:1031B00000F80000000000000033300000000010A4
:1031C0000C06100C0600000000000000000040C0CB
:1031D0007840C0784000043F04043F0404000070BD
:1031E00088FC08300000001820FF211E0000F008B5
:1031F000F000E018000000211C031E211E0000F05A
:103200000888700000001E212324192721101016A1
:103210000E000000000000000000000000000000A0
:1032200000E018040200000000071820400000021F
:103230000418E00000000040201807000000404093
:1032400080F0804040000202010F010202000000F5
:1032500000F0000000000101011F01010100000059
:1032600000000000000080B07000000000000000BE
:103270000000000000000001010101010101000047
:1032800000000000000000303000000000000000DE
:10329000000080601804006018060100000000E0D3
:1032A00010080810E000000F102020100F00001080
:1032B00010F8000000000020203F202000000070D7
:1032C00008080888700000302824222130000030CF
:1032D0000888884830000018202020110E000000C7
:1032E000C02010F8000000070424243F240000F848
:1032F0000888880808000019212020110E0000E02D
:10330000108888180000000F112020110E000038CE
:103310000808C83808000000003F000000000070E6
:10332000880808887000001C222121221C0000E06F
:1033300010080810E0000000312222110F000000E8
:1033400000C0C0000000000000303000000000009D
:10335000008000000000000080600000000000000D
:1033600080402010080000010204081020004040A6
:1033700040404040400004040404040404000008E9
:10338000102040800000002010080402010000709E
:1033900048080808F0000000003036010000C03086
:1033A000C828E810E0000718272423140B000000A9
:1033B000C038E0000000203C23020227382008F833
:1033C000888888700000203F202020110E00C03027
:1033D000080808083800071820202010080008F8FE
:1033E00008080810E000203F202020100F0008F8F7
:1033F0008888E8081000203F20202320180008F8C3
:103400008888E8081000203F200003000000C0303A
:1034100008080838000007182020221E020008F8BB
:1034200008000008F808203F210101213F20000882
:1034300008F8080800000020203F202000000000BD
:103440000808F8080800C08080807F00000008F8A5
:1034500088C028180800203F20012638200008F8DE
:10346000080000000000203F20202020300008F845
:10347000F800F8F80800203F003F003F200008F85F
:1034800030C00008F808203F200007183F00E01077
:1034900008080810E0000F10202020100F0008F886
:1034A00008080808F000203F210101010000E01099
:1034B00008080810E0000F18242438504F0008F8BE
:1034C000888888887000203F2000030C302000701E
:1034D0008808080838000038202121221C0018081C
:1034E00008F8080818000000203F2000000008F835
:1034F00008000008F808001F202020201F0008787E
:10350000880000C83808000007380E010000F808DD
:1035100000F80008F800033C0700073C0300081807
:1035200068808068180820302C03032C302008386D
:10353000C800C83808000000203F20000000100824
:103540000808C8380800203826212020180000006C
:1035500000FE020202000000007F40404000000C1C
:1035600030C000000000000000010638C00000026A
:103570000202FE000000004040407F00000000000A
:10358000040202020400000000000000000000002D
:103590000000000000008080808080808080000229
:1035A0000204000000000000000000000000000015
:1035B0008080808000000019242222223F2008F809
:1035C000008080000000003F112020110E0000004C
:1035D000008080800000000E1120202011000000DB
:1035E00000808088F800000E112020103F2000008D
:1035F000808080800000001F222222221300008091
:1036000080F0888888180020203F202000000000DB
:10361000808080808000006B94949493600008F810
:10362000008080800000203F210000203F2000809B
:103630009898000000000020203F2020000000009B
:1036400000809898000000C08080807F000008F80B
:10365000000080808000203F24022D3020000008E0
:1036600008F8000000000020203F2020000080809B
:10367000808080808000203F20003F20003F8080AD
:10368000008080800000203F210000203F200000BB
:10369000808080800000001F202020201F0080806C
:1036A00000808000000080FFA12020110E0000009B
:1036B000008080808000000E112020A0FF8080808C
:1036C00080008080800020203F2120000100000039
:1036D000808080808000003324242424190000800E
:1036E00080E0808000000000001F2020000080801B
:1036F000000000808000001F202020103F208080DC
:1037000080000080808000010E300806010080806B
:103710000080008080800F300C030C300F00008090
:103720008000808080000020312E0E3120008080BB
:1037300080000080808080818E70180601000080EB
:103740008080808080000021302C22213000000009
:103750000000807C020200000000003F40400000AA
:103760000000FF00000000000000FF000000000259
:10377000027C800000000040403F00000000000686
:10378000010102020404000000000000000000002B
:10379000B037000800000020240A0000940600084A
:1037A000BC3C0008240A002054050000A2280008A0
:1037B000311324C81C74547C02137404100C8888C0
:1037C000E8A8A8ACA8A8E88888180910F01CF01090
:1037D0001010FC04390C111AF81A0212F813021F07
:1037E0001009140D05151D050D14100C11100806F7
:1037F0000202021E10101D15130A040B1B1F1101DB
:10380000121F2B100B0C190603110A11100C10912A
:1038100055F55D575555D51110100C1116F00414BF
:10382000640404FF0404200C20222AB262FF62B266
:103830002A222005171C7E7E1C22011B0705011071
:103840001887404040848241424444C54545444431
:10385000408282018080878034010202031A0303C0
:10386000301B8060108C8241A0601880442222446A
:10387000800184422224408C304281802B077806CC
:10388000011D18190101F10C0201E0100809129440
:10389000972B29282112141723C1E0101A0D1903A0
:1038A0000DF2027A91101B0384C8D0552A342449A2
:1038B00049909093934848645340202150D0C88C3D
:1038C00003880D3C42990501020602010181FF0BAC
:1038D00094C37E3C16383C3E3723180A0708172D40
:1038E0000D07030103031009070D0D07201008073A
:1038F0001623373E20202809010204080C06030184
:10390000AC890BC11012C02010101020DC323ADC40
:1039100020A0A0C00E307E3A40F70B136080FE401E
:103920001A40A09088D4E47072BC7838383E7CF895
:10393000F8F8F0F0F0E0C0C040204CFEFAFE0106BE
:1039400020FCFEFE1E021824804E3121212127F882
:1039500090D4F2E8474141D1231D8140209804834F
:103960003C90F13ECE7763C3C3273F4AF3F0C010CB
:103970001A0E07F1FCFEFFFFFCF89898E4E7FFDC65
:10398000FCCFCFFFBFFFEF1EF810200D403F8F434D
:103990007149498901030FF31288021CAA180FC04C
:1039A000C0E3D448880A053EC145D1E1FFC71EF8EF
:1039B00077D130903412881E218E701FFE63180854
:1039C0003F3F3F7F9FFF3FAA49013A400112C02875
:1039D00015030F3F7F7FFFBF3F1F0F0F0F8F8FCF4D
:1039E000E3F7791F07D016608087040108081E845A
:1039F0008340308C03A8803815E2D5F7FB6F7A77C7
:103A00007C7AFF727577777765E3EAC1CA341288EA
:103A1000400EA00FB04082112B4A4A720A13011DBA
:103A200001061EFE013808FF7F7F7F3F3FFF122EF9
:103A30000103031B23011C25150C9A101520702867
:103A40004681CA40282139458282824478404A40D2
:103A500088031BCA2018152F16FD6DFDFAEA626354
:103A60006AFDFA66629A9D65651A2D7C1A2A042AF7
:103A70002208181B018A022404880810101020A0B4
:103A8000A0604020212325242424444442C10F1C4B
:103A900020203019180D1818181414122221404033
:103AA0004080011100131B0304043CC4828383473C
:103AB000F80808081827C02902181508080F376FDA
:103AC0007F7F5F40577B7D7E7E7F7F3E0E080A159D
:103AD00029014A0A0719081F0C0C0A0A090D851C3E
:103AE0002020206619012C20201E70590119175C16
:103AF00010080C2F3F0909090A0A0D0A4A0E110283
:103B0000FF0A015100096630CC9860D8A8585012BD
:103B1000801A80012905190B810A1C04320940759D
:103B2000100EC06038880C240613012941812460DE
:103B30001425801580042981112301134206940C59
:103B4000183060C0082134028FC03FD41D48084C93
:103B5000144614A206421A42823A3F65E12D3B9672
:103B60003CECD496E47CC08B1827F05E0304500232
:103B70008801F2580E1243024B92C2C61444160436
:103B80002C04251686CA93410B12063CF801177CBB
:103B9000832824F83725B024301D3C314268517405
:103BA0002064D98022882288104421842802982009
:103BB00002244882112727012E14A0FD071B14415F
:103BC000817540E7EE182008040E0A1B0D0A0E420C
:103BD00001100C103FEB804015FF1E11FF1C13035A
:103BE0000334200820101040F0308F0A5084102435
:103BF000015A80220852000B2EE588222004214C15
:103C0000017FE013FADF000E1221400294E83160D8
:103C100024702131370CB00D3C6EC241CA5001FFF7
:103C2000A002FF80281A0103063C6AC8A10C396073
:103C300054C4D184C8F13F0C4194014A1022FF9E24
:103C4000012AA80A020F3C70C2800A7FE05CF127BB
:103C5000C0748FC4681F9E073C70C08028100F80FE
:103C6000FF5E40044912A004C015208429000833D7
:103C7000D480CD70311D0F28100101030E1F1616C0
:103C8000161C1C060C040C04031904A80D0C0814C3
:103C90002C3C1C341E0F070203F8001A25030202F5
:103CA000040604041E3E37263C171C1E06020602AC
:0C3CB0000302030301018B983A4B01143E
:04000005080000ED02
:00000001FF
